8=FIX.4.4|9=77|35=A|34=1|49=Initiator|52=20210103-15:04:51.716|56=Acceptor|98=0|108=6|141=Y|10=223|
8=FIX.4.4|9=77|35=A|34=1|49=Acceptor|52=20210103-15:04:51.838|56=Initiator|98=0|108=6|141=Y|10=228|
8=FIX.4.4|9=60|35=0|34=2|49=Acceptor|52=20210103-15:04:58.619|56=Initiator|10=183|
8=FIX.4.4|9=60|35=0|34=2|49=Initiator|52=20210103-15:04:58.631|56=Acceptor|10=177|
8=FIX.4.4|9=60|35=0|34=3|49=Acceptor|52=20210103-15:05:04.616|56=Initiator|10=173|
8=FIX.4.4|9=60|35=0|34=3|49=Initiator|52=20210103-15:05:04.625|56=Acceptor|10=173|
8=FIX.4.4|9=60|35=0|34=4|49=Acceptor|52=20210103-15:05:10.621|56=Initiator|10=167|
8=FIX.4.4|9=60|35=0|34=4|49=Initiator|52=20210103-15:05:10.621|56=Acceptor|10=167|
8=FIX.4.4|9=60|35=0|34=5|49=Acceptor|52=20210103-15:05:16.623|56=Initiator|10=176|
8=FIX.4.4|9=60|35=0|34=5|49=Initiator|52=20210103-15:05:16.623|56=Acceptor|10=176|
8=FIX.4.4|9=60|35=0|34=6|49=Acceptor|52=20210103-15:05:22.621|56=Initiator|10=172|
8=FIX.4.4|9=60|35=0|34=6|49=Initiator|52=20210103-15:05:22.621|56=Acceptor|10=172|
8=FIX.4.4|9=60|35=0|34=7|49=Acceptor|52=20210103-15:05:28.616|56=Initiator|10=183|
8=FIX.4.4|9=60|35=0|34=7|49=Initiator|52=20210103-15:05:28.622|56=Acceptor|10=180|
8=FIX.4.4|9=60|35=0|34=8|49=Acceptor|52=20210103-15:05:34.624|56=Initiator|10=180|
8=FIX.4.4|9=60|35=0|34=8|49=Initiator|52=20210103-15:05:34.623|56=Acceptor|10=179|
8=FIX.4.4|9=60|35=0|34=9|49=Initiator|52=20210103-15:05:40.628|56=Acceptor|10=182|
8=FIX.4.4|9=60|35=0|34=9|49=Acceptor|52=20210103-15:05:40.633|56=Initiator|10=178|
8=FIX.4.4|9=61|35=0|34=10|49=Initiator|52=20210103-15:05:46.634|56=Acceptor|10=226|
8=FIX.4.4|9=61|35=0|34=10|49=Acceptor|52=20210103-15:05:46.639|56=Initiator|10=231|
8=FIX.4.4|9=61|35=0|34=11|49=Initiator|52=20210103-15:05:52.627|56=Acceptor|10=226|
8=FIX.4.4|9=61|35=0|34=11|49=Acceptor|52=20210103-15:05:52.634|56=Initiator|10=224|
8=FIX.4.4|9=61|35=0|34=12|49=Initiator|52=20210103-15:05:58.620|56=Acceptor|10=226|
8=FIX.4.4|9=61|35=0|34=12|49=Acceptor|52=20210103-15:05:58.625|56=Initiator|10=231|
8=FIX.4.4|9=61|35=0|34=13|49=Acceptor|52=20210103-15:06:04.623|56=Initiator|10=222|
8=FIX.4.4|9=61|35=0|34=13|49=Initiator|52=20210103-15:06:04.623|56=Acceptor|10=222|
8=FIX.4.4|9=61|35=0|34=14|49=Initiator|52=20210103-15:06:10.629|56=Acceptor|10=226|
8=FIX.4.4|9=61|35=0|34=14|49=Acceptor|52=20210103-15:06:10.638|56=Initiator|10=226|
8=FIX.4.4|9=61|35=0|34=15|49=Initiator|52=20210103-15:06:16.624|56=Acceptor|10=228|
8=FIX.4.4|9=61|35=0|34=15|49=Acceptor|52=20210103-15:06:16.631|56=Initiator|10=226|
8=FIX.4.4|9=61|35=0|34=16|49=Acceptor|52=20210103-15:06:22.626|56=Initiator|10=228|
8=FIX.4.4|9=61|35=0|34=16|49=Initiator|52=20210103-15:06:22.626|56=Acceptor|10=228|
8=FIX.4.4|9=61|35=0|34=17|49=Initiator|52=20210103-15:06:28.631|56=Acceptor|10=231|
8=FIX.4.4|9=61|35=0|34=17|49=Acceptor|52=20210103-15:06:28.638|56=Initiator|10=238|
8=FIX.4.4|9=61|35=0|34=18|49=Initiator|52=20210103-15:06:34.633|56=Acceptor|10=231|
8=FIX.4.4|9=61|35=0|34=18|49=Acceptor|52=20210103-15:06:34.639|56=Initiator|10=237|
8=FIX.4.4|9=61|35=0|34=19|49=Initiator|52=20210103-15:06:40.629|56=Acceptor|10=234|
8=FIX.4.4|9=61|35=0|34=19|49=Acceptor|52=20210103-15:06:40.636|56=Initiator|10=232|
8=FIX.4.4|9=61|35=0|34=20|49=Initiator|52=20210103-15:06:46.631|56=Acceptor|10=225|
8=FIX.4.4|9=61|35=0|34=20|49=Acceptor|52=20210103-15:06:46.637|56=Initiator|10=231|
8=FIX.4.4|9=61|35=0|34=21|49=Initiator|52=20210103-15:06:52.630|56=Acceptor|10=222|
8=FIX.4.4|9=61|35=0|34=21|49=Acceptor|52=20210103-15:06:52.637|56=Initiator|10=229|
8=FIX.4.4|9=61|35=0|34=22|49=Initiator|52=20210103-15:06:58.632|56=Acceptor|10=231|
8=FIX.4.4|9=61|35=0|34=22|49=Acceptor|52=20210103-15:06:58.638|56=Initiator|10=237|
8=FIX.4.4|9=77|35=A|34=1|49=Initiator|52=20210103-15:12:22.849|56=Acceptor|98=0|108=6|141=Y|10=227|
8=FIX.4.4|9=77|35=A|34=1|49=Acceptor|52=20210103-15:12:22.876|56=Initiator|98=0|108=6|141=Y|10=227|
8=FIX.4.4|9=60|35=0|34=2|49=Acceptor|52=20210103-15:12:29.130|56=Initiator|10=168|
8=FIX.4.4|9=60|35=0|34=2|49=Initiator|52=20210103-15:12:29.139|56=Acceptor|10=177|
8=FIX.4.4|9=60|35=0|34=3|49=Initiator|52=20210103-15:12:35.767|56=Acceptor|10=182|
8=FIX.4.4|9=60|35=0|34=3|49=Acceptor|52=20210103-15:12:35.774|56=Initiator|10=180|
8=FIX.4.4|9=78|35=A|34=1|49=Initiator|52=20210103-15:15:25.054|56=Acceptor|98=0|108=20|141=Y|10=010|
8=FIX.4.4|9=78|35=A|34=1|49=Acceptor|52=20210103-15:15:25.123|56=Initiator|98=0|108=20|141=Y|10=007|
8=FIX.4.4|9=60|35=0|34=2|49=Acceptor|52=20210103-15:15:45.513|56=Initiator|10=174|
8=FIX.4.4|9=60|35=0|34=2|49=Initiator|52=20210103-15:15:45.522|56=Acceptor|10=174|
8=FIX.4.4|9=71|35=A|34=3|49=Initiator|52=20210103-15:20:46.507|56=Acceptor|98=0|108=6|10=174|
8=FIX.4.4|9=71|35=A|34=1|49=Acceptor|52=20210103-15:20:46.594|56=Initiator|98=0|108=6|10=178|
8=FIX.4.4|9=109|35=5|34=4|49=Initiator|52=20210103-15:20:46.602|56=Acceptor|58=MsgSeqNum too low, expecting 3 but received 1|10=125|
8=FIX.4.4|9=69|35=2|34=2|49=Acceptor|52=20210103-15:20:46.606|56=Initiator|7=1|16=0|10=052|
8=FIX.4.4|9=77|35=A|34=1|49=Initiator|52=20210103-15:21:16.482|56=Acceptor|98=0|108=6|141=Y|10=223|
8=FIX.4.4|9=77|35=A|34=1|49=Acceptor|52=20210103-15:21:16.522|56=Initiator|98=0|108=6|141=Y|10=218|
8=FIX.4.4|9=60|35=0|34=2|49=Initiator|52=20210103-15:21:22.481|56=Acceptor|10=170|
8=FIX.4.4|9=60|35=0|34=2|49=Acceptor|52=20210103-15:21:23.340|56=Initiator|10=165|
8=FIX.4.4|9=60|35=0|34=3|49=Initiator|52=20210103-15:21:28.483|56=Acceptor|10=179|
8=FIX.4.4|9=60|35=0|34=3|49=Acceptor|52=20210103-15:21:29.339|56=Initiator|10=180|
8=FIX.4.4|9=60|35=0|34=4|49=Acceptor|52=20210103-15:21:35.343|56=Initiator|10=173|
8=FIX.4.4|9=60|35=0|34=4|49=Initiator|52=20210103-15:21:35.350|56=Acceptor|10=171|
8=FIX.4.4|9=71|35=A|34=5|49=Initiator|52=20210103-15:31:07.193|56=Acceptor|98=0|108=6|10=176|
8=FIX.4.4|9=71|35=A|34=5|49=Acceptor|52=20210103-15:31:07.252|56=Initiator|98=0|108=6|10=172|
8=FIX.4.4|9=71|35=A|34=6|49=Initiator|52=20210103-15:31:16.641|56=Acceptor|98=0|108=6|10=175|
8=FIX.4.4|9=71|35=A|34=1|49=Acceptor|52=20210103-15:31:16.653|56=Initiator|98=0|108=6|10=173|
8=FIX.4.4|9=69|35=2|34=2|49=Acceptor|52=20210103-15:31:16.657|56=Initiator|7=1|16=0|10=057|
8=FIX.4.4|9=109|35=5|34=7|49=Initiator|52=20210103-15:31:16.665|56=Acceptor|58=MsgSeqNum too low, expecting 6 but received 1|10=139|
8=FIX.4.4|9=60|35=5|34=3|49=Acceptor|52=20210103-15:31:16.669|56=Initiator|10=188|
8=FIX.4.4|9=77|35=A|34=1|49=Initiator|52=20210103-15:31:46.602|56=Acceptor|98=0|108=6|141=Y|10=221|
8=FIX.4.4|9=77|35=A|34=1|49=Acceptor|52=20210103-15:31:46.627|56=Initiator|98=0|108=6|141=Y|10=228|
8=FIX.4.4|9=60|35=0|34=2|49=Initiator|52=20210103-15:31:52.615|56=Acceptor|10=173|
8=FIX.4.4|9=60|35=0|34=2|49=Acceptor|52=20210103-15:31:52.623|56=Initiator|10=172|
8=FIX.4.4|9=60|35=0|34=3|49=Acceptor|52=20210103-15:31:59.287|56=Initiator|10=186|
8=FIX.4.4|9=60|35=0|34=3|49=Initiator|52=20210103-15:31:59.296|56=Acceptor|10=186|
8=FIX.4.4|9=60|35=0|34=4|49=Acceptor|52=20210103-15:32:05.285|56=Initiator|10=177|
8=FIX.4.4|9=60|35=0|34=4|49=Initiator|52=20210103-15:32:05.294|56=Acceptor|10=177|
8=FIX.4.4|9=60|35=0|34=5|49=Acceptor|52=20210103-15:32:11.286|56=Initiator|10=176|
8=FIX.4.4|9=60|35=0|34=5|49=Initiator|52=20210103-15:32:11.293|56=Acceptor|10=174|
8=FIX.4.4|9=71|35=A|34=6|49=Initiator|52=20210103-15:33:18.429|56=Acceptor|98=0|108=6|10=183|
8=FIX.4.4|9=71|35=A|34=1|49=Acceptor|52=20210103-15:33:18.510|56=Initiator|98=0|108=6|10=169|
8=FIX.4.4|9=69|35=2|34=2|49=Acceptor|52=20210103-15:33:18.514|56=Initiator|7=1|16=0|10=053|
8=FIX.4.4|9=109|35=5|34=7|49=Initiator|52=20210103-15:33:18.518|56=Acceptor|58=MsgSeqNum too low, expecting 6 but received 1|10=140|
8=FIX.4.4|9=60|35=5|34=3|49=Acceptor|52=20210103-15:33:18.521|56=Initiator|10=179|
8=FIX.4.4|9=77|35=A|34=1|49=Initiator|52=20210103-15:33:48.414|56=Acceptor|98=0|108=6|141=Y|10=226|
8=FIX.4.4|9=77|35=A|34=1|49=Acceptor|52=20210103-15:33:48.459|56=Initiator|98=0|108=6|141=Y|10=235|
8=FIX.4.4|9=71|35=A|34=2|49=Initiator|52=20210103-15:33:57.847|56=Acceptor|98=0|108=6|10=186|
8=FIX.4.4|9=71|35=A|34=1|49=Acceptor|52=20210103-15:33:57.858|56=Initiator|98=0|108=6|10=187|
8=FIX.4.4|9=69|35=2|34=2|49=Acceptor|52=20210103-15:33:57.860|56=Initiator|7=1|16=0|10=060|
8=FIX.4.4|9=109|35=5|34=3|49=Initiator|52=20210103-15:33:57.870|56=Acceptor|58=MsgSeqNum too low, expecting 2 but received 1|10=136|
8=FIX.4.4|9=60|35=5|34=3|49=Acceptor|52=20210103-15:33:57.875|56=Initiator|10=194|
8=FIX.4.4|9=77|35=A|34=1|49=Initiator|52=20210103-15:41:25.625|56=Acceptor|98=0|108=6|141=Y|10=224|
8=FIX.4.4|9=77|35=A|34=1|49=Acceptor|52=20210103-15:41:25.681|56=Initiator|98=0|108=6|141=Y|10=226|
8=FIX.4.4|9=60|35=0|34=2|49=Acceptor|52=20210103-15:41:32.162|56=Initiator|10=169|
8=FIX.4.4|9=60|35=0|34=2|49=Initiator|52=20210103-15:41:32.171|56=Acceptor|10=169|
8=FIX.4.4|9=60|35=0|34=3|49=Acceptor|52=20210103-15:41:38.165|56=Initiator|10=179|
8=FIX.4.4|9=60|35=0|34=3|49=Initiator|52=20210103-15:41:38.171|56=Acceptor|10=176|
8=FIX.4.4|9=60|35=0|34=4|49=Acceptor|52=20210103-15:41:44.162|56=Initiator|10=174|
8=FIX.4.4|9=60|35=0|34=4|49=Initiator|52=20210103-15:41:44.168|56=Acceptor|10=180|
8=FIX.4.4|9=60|35=0|34=5|49=Acceptor|52=20210103-15:41:50.163|56=Initiator|10=173|
8=FIX.4.4|9=60|35=0|34=5|49=Initiator|52=20210103-15:41:50.170|56=Acceptor|10=171|
8=FIX.4.4|9=60|35=0|34=6|49=Acceptor|52=20210103-15:41:56.161|56=Initiator|10=178|
8=FIX.4.4|9=60|35=0|34=6|49=Initiator|52=20210103-15:41:56.166|56=Acceptor|10=183|
8=FIX.4.4|9=60|35=0|34=7|49=Acceptor|52=20210103-15:42:02.170|56=Initiator|10=171|
8=FIX.4.4|9=60|35=0|34=7|49=Initiator|52=20210103-15:42:02.173|56=Acceptor|10=174|
8=FIX.4.4|9=60|35=0|34=8|49=Acceptor|52=20210103-15:42:08.168|56=Initiator|10=185|
8=FIX.4.4|9=60|35=0|34=8|49=Initiator|52=20210103-15:42:08.170|56=Acceptor|10=178|
8=FIX.4.4|9=71|35=A|34=9|49=Initiator|52=20210103-15:42:21.278|56=Acceptor|98=0|108=6|10=182|
8=FIX.4.4|9=71|35=A|34=1|49=Acceptor|52=20210103-15:42:21.296|56=Initiator|98=0|108=6|10=174|
8=FIX.4.4|9=69|35=2|34=2|49=Acceptor|52=20210103-15:42:21.299|56=Initiator|7=1|16=0|10=057|
8=FIX.4.4|9=110|35=5|34=10|49=Initiator|52=20210103-15:42:21.309|56=Acceptor|58=MsgSeqNum too low, expecting 9 but received 1|10=169|
8=FIX.4.4|9=60|35=5|34=3|49=Acceptor|52=20210103-15:42:21.316|56=Initiator|10=175|
8=FIX.4.4|9=77|35=A|34=1|49=Initiator|52=20210103-18:53:56.116|56=Acceptor|98=0|108=6|141=Y|10=229|
8=FIX.4.4|9=77|35=A|34=1|49=Acceptor|52=20210103-18:53:56.248|56=Initiator|98=0|108=6|141=Y|10=235|
8=FIX.4.4|9=108|35=V|34=2|49=Initiator|52=20210103-18:54:01.171|56=Acceptor|262=Test1|263=1|264=0|146=1|55=BBVA|267=1|269=2|10=174|
8=FIX.4.4|9=104|35=X|34=2|49=Acceptor|52=20210103-18:54:02.241|56=Initiator|262=Test1|268=1|279=0|269=2|55=BBVA|270=1.1|10=005|
8=FIX.4.4|9=104|35=X|34=3|49=Acceptor|52=20210103-18:54:04.192|56=Initiator|262=Test1|268=1|279=0|269=2|55=BBVA|270=1.3|10=015|
8=FIX.4.4|9=104|35=X|34=4|49=Acceptor|52=20210103-18:54:06.197|56=Initiator|262=Test1|268=1|279=0|269=2|55=BBVA|270=1.5|10=025|
