8=FIX.4.4|9=105|35=X|34=1|49=Acceptor|52=20210103-18:54:08.187|56=Initiator|262=Test1|268=1|279=0|269=2|55=BBVA|270=10.1|10=068|8=FIX.4.4|9=105|35=X|34=2|49=Acceptor|52=20210103-18:54:11.186|56=Initiator|262=Test1|268=1|279=0|269=2|55=BBVA|270=10.2|10=063|8=FIX.4.4|9=105|35=X|34=3|49=Acceptor|52=20210103-18:54:16.198|56=Initiator|262=Test1|268=1|279=0|269=2|55=BBVA|270=10.3|10=073|8=FIX.4.4|9=105|35=X|34=4|49=Acceptor|52=20210103-18:54:56.197|56=Initiator|262=Test1|268=1|279=0|269=2|55=BBVA|270=10.5|10=079|8=FIX.4.4|9=103|35=X|34=5|49=Acceptor|52=20210103-18:55:01.190|56=Initiator|262=Test1|268=1|279=0|269=2|55=BBVA|270=11|10=220|