8=FIX.4.4|9=77|35=A|34=1|49=Initiator|52=20210103-18:53:56.116|56=Acceptor|98=0|108=6|141=Y|10=229|8=FIX.4.4|9=108|35=V|34=2|49=Initiator|52=20210103-18:54:01.171|56=Acceptor|262=Test1|263=1|264=0|146=1|55=BBVA|267=1|269=2|10=174|